:100000000C9434000C943E000C943E000C943E0082
:100010000C943E000C943E000C943E000C943E0068
:100020000C943E000C943E000C943E000C943E0058
:100030000C943E000C943E000C943E000C943E0048
:100040000C9440000C943E000C943E000C943E0036
:100050000C943E000C943E000C943E000C943E0028
:100060000C943E000C943E0011241FBECFEFD8E04C
:10007000DEBFCDBF0E9444000C9458000C940000D9
:1000800005B1029505B91895CF93DF93CDB7DEB7CB
:100090000FE71FE004B915B9000000E015E021E00A
:1000A00004BD15BDEEE6F0E020837894FFCF0895FF
:0A00B000F8940C945B00F894FFCF65
:00000001FF
