:100000000C9434000C943E000C943E000C943E0082
:100010000C943E000C943E000C943E000C943E0068
:100020000C943E000C943E000C943E000C943E0058
:100030000C943E000C943E000C943E000C943E0048
:100040000C9440000C943E000C943E000C943E0036
:100050000C943E000C943E000C943E000C943E0028
:100060000C943E000C943E0011241FBECFEFD8E04C
:10007000DEBFCDBF0E9444000C945B000C940000D6
:1000800005B0029405B81895CF93DF93CDB7DEB7CE
:100090000FE71FE004B915B900E00093000100006C
:1000A00000E015E021E004BD15BDEEE6F0E02083A0
:1000B0007894FFCF0895F8940C945E00F894FFCFE5
:00000001FF
